:042000005FEF3FF05F
:107EBE00000EF86E000164EF3FF03F0E816E030E70
:107ECE00826E000E076E000E066E2ED0000E0B6E2A
:107EDE00000E0A6E0B50800A800F0A0ED8B40A5C90
:107EEE00D8B020D00AC001F00BC002F0A5EC3FF0D4
:107EFE00000E096E000E086E0950800A800F640E87
:107F0E00D8B4085CD8B00BD09C0E056ED70EE82EF8
:107F1E00FED7052EFCD700F0084A092AEDD70A4AEB
:107F2E000B2AD8D7064A072A0750800A800F050E5B
:107F3E00D8B4065CD8A0CAD700EF10F032D0000E2D
:107F4E00936E010E946E1200390E936E010E946EA6
:107F5E001200240E936E000E946E1200300E936E6D
:107F6E00000E946E1200190E936E000E946E120097
:107F7E00120E936E000E946E1200020E936E000E91
:107F8E00946E1200380E936E010E946E1200000E57
:107F9E00936E000E946E1200100E936E000E946E81
:107FAE00120001C003F002C004F00450000AD8A46D
:107FBE0012000350000AD8B4C2D7010AD8B4C4D7ED
:107FCE00030AD8B4C6D7010AD8B4C8D7070AD8B49A
:107FDE00CAD7010AD8B4CCD7030AD8B4CED7010A6F
:107FEE00D8B4D0D70F0AD8B4D2D7010AD8A4120069
:027FFE00D3D7D7
:020000040020DA
:08000000FFFFFFFFFFFFFFFF00
:020000040030CA
:0E00000000255F3FFFD385FF0FC00FE00F40CC
:00000001FF
